:020000040800F2
:1000000078060020CD010008AB030008A303000818
:10001000A7030008870200082D090008000000005F
:10002000000000000000000000000000690500085A
:100030008B0200080000000031040008550600088B
:10004000E7010008E7010008E7010008E7010008F0
:10005000E7010008E7010008E7010008E7010008E0
:10006000E7010008E7010008E7010008E7010008D0
:10007000E7010008E7010008E7010008E7010008C0
:10008000E7010008E7010008E7010008E7010008B0
:10009000E7010008E7010008E7010008E7010008A0
:1000A000E7010008E7010008E7010008E701000890
:1000B000E7010008E7010008E7010008E701000880
:1000C000E7010008E7010008E7010008E701000870
:1000D000E7010008E7010008E7010008E701000860
:1000E000E7010008E7010008E7010008E701000850
:1000F000E7010008E7010008E7010008E701000840
:10010000E7010008E7010008E7010008E70100082F
:10011000E7010008E7010008E7010008E70100081F
:10012000E7010008E7010008E7010008E70100080F
:1001300000F002F800F03AF80AA090E8000C8244BF
:100140008344AAF10107DA4501D100F02FF8AFF29C
:10015000090EBAE80F0013F0010F18BFFB1A43F0A5
:10016000010318471008000030080000103A24BFAF
:1001700078C878C1FAD8520724BF30C830C144BF0C
:1001800004680C607047000000230024002500264E
:10019000103A28BF78C1FBD8520728BF30C148BFEA
:1001A0000B6070471FB51FBD10B510BD00F031F8D2
:1001B0001146FFF7F7FF00F0BBFB00F04FF803B468
:1001C000FFF7F2FF03BC00F057F800000948804732
:1001D00009480047FEE7FEE7FEE7FEE7FEE7FEE729
:1001E000FEE7FEE7FEE7FEE704480549054A064B41
:1001F000704700005906000831010008780000200F
:1002000078060020780200207802002070477047AE
:100210007047754600F02CF8AE4605006946534617
:1002200020F00700854618B020B5FFF7DDFFBDE8D8
:1002300020404FF000064FF000074FF000084FF04D
:10024000000B21F00701AC46ACE8C009ACE8C009DE
:10025000ACE8C009ACE8C0098D46704710B504464B
:10026000AFF300802046BDE81040FFF7A8BF0000B4
:10027000004870471400002001491820ABBEFEE77B
:1002800026000200704700BFFEE770472DE9F041ED
:10029000024600250026002000230024002791F8B4
:1002A00003C00CF00F0591F803C00CF0100CBCF16A
:1002B000000F03D091F802C04CEA050591F800C088
:1002C000BCF1000F31D0146800202BE04FF0010C7E
:1002D0000CFA00F3B1F800C00CEA03069E4220D1EC
:1002E00083004FF00F0C0CFA03F7BC4305FA03FC34
:1002F0004CEA040491F803C0BCF1280F06D14FF07A
:10030000010C0CFA00FCC2F814C00AE091F803C01A
:10031000BCF1480F05D14FF0010C0CFA00FCC2F8FB
:1003200010C0401C0828D1D31460B1F800C0BCF143
:10033000FF0F34DD546800202EE000F1080C4FF070
:10034000010808FA0CF3B1F800C00CEA03069E425B
:1003500021D183004FF00F0C0CFA03F7BC4305FAD0
:1003600003FC4CEA040491F803C0BCF1280F05D14A
:1003700000F1080C08FA0CF8C2F8148091F803C0D8
:10038000BCF1480F07D100F1080C4FF0010808FA42
:100390000CF8C2F81080401C0828CED35460BDE889
:1003A000F08100BFFEE700BFFEE7704770B5002197
:1003B00000230F22C47804B3154C246804F4E064CD
:1003C000C4F5E064210AC1F10403CA40447804FA88
:1003D00003F184781440214309010E4C0678A1559D
:1003E000047804F01F050124AC4005786D11AD00C0
:1003F00005F1E025C5F8004109E0047804F01F0587
:100400000124AC40044D0678761145F8264070BDB5
:100410000CED00E000E400E080E100E0024901436F
:10042000024A1160704700000000FA050CED00E080
:100430007047000029B1064A12690243044B1A6151
:1004400004E0034A12698243014B1A6170470000BD
:100450000010024029B1064A92690243044B9A6196
:1004600004E0034A92698243014B9A61704700009D
:100470000010024029B1064AD2680243044BDA60F8
:1004800004E0034AD2688243014BDA6070470000FF
:100490000010024030B500210022002400232D4D21
:1004A0006D6805F00C0121B1042905D0082923D17C
:1004B00005E0294D056022E0274D05601FE0254D30
:1004C0006D6805F47012234D6D6805F480340225C3
:1004D00005EB92421CB9214D554305600BE01D4DC3
:1004E0006D6805F400351DB11C4D5543056002E0F3
:1004F000194D5543056002E0174D056000BF00BF70
:10050000144D6D6805F0F0010909154D6B5C056827
:10051000DD4045600F4D6D6805F4E061090A104D3E
:100520006B5C4568DD4085600A4D6D6805F460517F
:10053000C90A0B4D6B5C4568DD40C560054D6D68B3
:1005400005F44041890B074D6B5CC568B5FBF3F5BD
:10055000056130BD0010024000127A0000093D0024
:100560000000002010000020704710B500F002F8D5
:1005700010BD00000CB500200190009033480068C9
:1005800040F480303149086000BF3048006800F412
:10059000003000900198401C0190009818B9019813
:1005A000B0F5A06FF1D12948006800F4003010B117
:1005B0000120009001E0002000900098012843D124
:1005C0002348006840F01000214908600846006890
:1005D00020F0030008600846006840F00200086050
:1005E0001A4840681949486008464068486008460B
:1005F000406840F4806048600846406820F47C1001
:1006000048600846406840F4E810486008460068C2
:1006100040F08070086000BF0C48006800F0007077
:100620000028F9D00948406820F0030007494860D5
:100630000846406840F00200486000BF0348406838
:1006400000F00C000828F9D10CBD00000010024099
:10065000002002407047000010B51348006840F0C9
:1006600001001149086008464068104908400E49D9
:100670004860084600680E4908400B490860084673
:10068000006820F4802008600846406820F4FE00DE
:1006900048604FF41F008860FFF767FF4FF000606D
:1006A0000449086010BD0000001002400000FFF87F
:1006B000FFFFF6FE08ED00E000B587B0012144F22F
:1006C0000400FFF7C7FE244800F056F818208DF804
:1006D0001B004FF40070ADF8180003208DF81A00CD
:1006E00006A91E48FFF7D2FD04208DF81B0000026A
:1006F000ADF8180003208DF81A0006A91748FFF777
:10070000C5FD4FF4C060FFF789FE25208DF8140069
:1007100001208DF815008DF816008DF8170005A83A
:10072000FFF744FE4FF4165001900020ADF80C0086
:10073000ADF80A00ADF80800ADF810000C20ADF8D7
:100740000E0001A9044800F073F80121024800F0EE
:1007500007F807B000BD0000003801400008014064
:1007600021B1828942F40052828104E082894DF6EF
:10077000FF731A408281704710B5044620488442B6
:1007800009D101218803FFF775FE00214FF4804055
:10079000FFF770FE32E01B48844209D10121480472
:1007A000FFF748FE00214FF40030FFF743FE25E03D
:1007B0001548844209D101218804FFF73BFE00213E
:1007C0004FF48020FFF736FE18E01048844209D12C
:1007D0000121C804FFF72EFE00214FF40020FFF78F
:1007E00029FE0BE00A48844208D101210805FFF7E1
:1007F00021FE00214FF48010FFF71CFE10BD000009
:10080000003801400044004000480040004C0040D7
:100810000050004002460020B1F5007F00D100BF2B
:1008200013880B400BB1012000E00020704700004E
:100830002DE9F04786B005460E460024A24600BFCB
:10084000A1460027B08900B100BF2F462C8A4CF684
:10085000FF700440F08804432C82AC894EF6F310FC
:100860000440B08831890843718908430443AC814E
:10087000AC8A4FF6FF400440B0890443AC8201A823
:10088000FFF708FE1F48874202D1DDF810A001E003
:10089000DDF80CA0A88900F4004040B10AEBCA00C2
:1008A00000EB0A1031684900B0FBF1F807E00AEBF1
:1008B000CA0000EB0A1031688900B0FBF1F864202F
:1008C000B8FBF0F004012009642101FB1089A8891C
:1008D00000F4004040B1322000EBC900B0FBF1F061
:1008E00000F00700044308E0322000EB0910642107
:1008F000B0FBF1F000F00F0004432C8106B0BDE81E
:10090000F08700000038014070B505460C4609E04C
:1009100000BF40212846FFF77DFF0028F9D020784E
:10092000A880641C20780028F2D170BD00BFFEE7CB
:10093000FFF7C2FE0CA10E48FFF7E6FF12E02021F0
:100940000B48FFF767FF68B10948001D0088C4B273
:1009500000BF40210648FFF75DFF0028F9D004489A
:10096000001D0480EBE70000C4E3BAC3A3A10000AC
:100970000038014094090008000000201400000025
:100980006C010008A809000814000020640600009B
:1009900088010008000000000102030401020304B2
:0809A00006070809020406081D
:0400000508000131BD
:00000001FF
